:100998000C08767A7CB6BABCD6DADCE6EAEC0D143A
:0D09A8003132333435363738392A302300E8
:1008EA00E4F5A0C282C280C2817F38FE1209CF120B
:1008FA0009747F067E001209CF1209747F0C7E00EC
:10090A001209CF1209747F017E001209CF120974ED
:07091A007F807E000209CF7F
:040974007F047E007E
:10097800E4FDFCC3ED9FEC9E5015E4FBFA0BBB00B5
:0F098800010ABA01F8BB7EF50DBD00010C80E439
:01099700223D
:1009CF00C280C281D2828FA07F0A7E00120978C2B4
:0209DF00822272
:1009E100D280C281D2828FA07F0A7E00120978C292
:0209F100822260
:10094F008B228A238924AB22AA23A9241209B660F9
:10095F00130524E5247002052314F91209B6FF12BA
:05096F0009E180E22215
:100921001208EA12088C74142FF8E6FF1209E17517
:10093100B0F0E5B054F0440FF5216321FFE52160EB
:0E094100E2E5B054F0440FF5216321FF80EF92
:10088C0075B0F0E5B054F064F060F8E5B054F0FFEA
:10089C0075B00FE5B0540E4FFDE4FCC37480948B1F
:1008AC00503BEC2408F8E6B505028C257F147E003D
:1008BC0012097875B0F0E5B054F0FF75B00FE5B0E3
:1008CC00540E4FFDE4FC74082CF8E6B50502A9049F
:0D08DC000CBC0BF2E9B52503AF04227F2010
:0108E90022EC
:03000000020800F3
:0C080000787FE4F6D8FD758125020847DA
:1009B600BB010689828A83E0225002E722BBFE023F
:0909C600E32289828A83E4932272
:10080C00020921E493A3F8E493A34003F68001F2D8
:10081C0008DFF48029E493A3F85407240CC8C333ED
:10082C00C4540F4420C8834004F456800146F6DFBC
:10083C00E4800B0102040810204080900998E47EAB
:10084C00019360BCA3FF543F30E509541FFEE493B1
:10085C00A360010ECF54C025E060A840B8E493A378
:10086C00FAE493A3F8E493A3C8C582C8CAC583CAA3
:10087C00F0A3C8C582C8CAC583CADFE9DEE780BE5B
:0109B5000041
:00000001FF
