:10080000E4F5A0C282C280C2817F38FE120A1412AF
:1008100009B47F067E00120A141209B47F0C7E0010
:10082000120A141209B47F017E00120A141209B4CC
:070830007F807E00020A1424
:0409B4007F047E003E
:1009B800E4FDFCC3ED9FEC9E5015E4FBFA0BBB0075
:0F09C800010ABA01F8BB7EF50DBD00010C80E4F9
:0109D70022FD
:100A1400C280C281D2828FA07F0A7E001209B8C22E
:020A240082222C
:100A2600D280C281D2828FA07F0A7E001209B8C20C
:020A360082221A
:10098F008B088A09890AAB08AA09A90A1209FB6010
:10099F0013050AE50A7002050914F91209FBFF1283
:0509AF000A2680E2228F
:1009D800C28712083712086212088D1208B8120866
:1009E800E312090E1209391209647FE87E0312091D
:0309F800B880DFE5
:10083700750B01758911E4F58DF58BD28E208F111B
:10084700758CF0758A60D28C308DFDB287C28D8031
:0B085700ECC28F050BE50BB411D92299
:10086200750B01758911E4F58DF58BD28E208F11F0
:10087200758CF1758A8CD28C308DFDB287C28D80D9
:0B088200ECC28F050BE50BB411D9226E
:10088D00750B01758911E4F58DF58BD28E208F11C5
:10089D00758CF3758A1CD28C308DFDB287C28D801C
:0B08AD00ECC28F050BE50BB411D92243
:1008B800758911750B01E4F58DF58BD28E208F119A
:1008C800758CF3758AE4D28C308DFDB287C28D8029
:0B08D800ECC28F050BE50BB419DC220D
:1008E300758911750B01E4F58DF58BD28E208F116F
:1008F300758CF5758A44D28C308DFDB287C28D809C
:0B090300ECC28F050BE50BB419DC22E1
:10090E00758911750B01E4F58DF58BD28E208F1143
:10091E00758CF6758A3CD28C308DFDB287C28D8077
:0B092E00ECC28F050BE50BB420DC22AF
:10093900758911750B01E4F58DF58BD28E208F1118
:10094900758CF7758A68D28C308DFDB287C28D801F
:0B095900ECC28F050BE50BB420DC2284
:10096400758911750B01E4F58DF58BD28E208F11ED
:10097400758CF8758A30D28C308DFDB287C28D802B
:0B098400ECC28F050BE50BB420DC2259
:03000000020A38B9
:0C0A3800787FE4F6D8FD75810B0209D828
:1009FB00BB010689828A83E0225002E722BBFE02FA
:090A0B00E32289828A83E493222C
:00000001FF
