:0C0AEC000428000038EB042C000021BCA2
:10080000758901E4F58CF58AD28C7B0AFAF9F8AF88
:100810002BAE2AAD29AC281209CE8F138E128D1162
:100820008C10E47B0AFAF9F8AF2BAE2AAD29AC287C
:100830001209CEAC00AD01AE02AF038F0B8E0A8D54
:10084000098C08E47B0AFAF9F8AF2FAE2EAD2DAC77
:100850002C1209CE8F1B8E1A8D198C18E47B0AFA84
:10086000F9F8AF2FAE2EAD2DAC2C1209CEAC00ADE9
:1008700001AE02AF038F0F8E0E8D0D8C0CAB0BAA49
:100880000AA909A8081209438F178E168D158C1412
:10089000AF1BAE1AAD19AC18AB0BAA0AA909A80870
:1008A0001209438F1F8E1E8D1D8C1CAF0FAE0EAD17
:1008B0000DAC0CAB13AA12A911A8101209438F2377
:1008C0008E228D218C20AF1BAE1AAD19AC18AB1344
:1008D000AA12A911A8101209438F278E268D258CE4
:1008E00024E51F2523FFE51E3522FEE51D3521FDEC
:1008F000E51C3520FCE47B0AFAF9F8120943EF25E0
:1009000017FFEE3516FEED3515FDEC3514FCC00471
:10091000C005C006C007E47F64FEFDFCAB27AA2625
:10092000A925A824120943D003D002D001D000EF9A
:100930002BF533EE3AF532ED39F531EC38F530C2BE
:030940008C80FEAA
:03000000020A6091
:0C0A6000787FE4F6D8FD758133020AA708
:10094300E88FF0A4CC8BF0A42CFCE98EF0A42CFC53
:100953008AF0EDA42CFCEA8EF0A4CDA8F08BF0A4D1
:100963002DCC3825F0FDE98FF0A42CCD35F0FCEB30
:100973008EF0A4FEA9F0EB8FF0A4CFC5F02ECD39F5
:0F098300FEE43CFCEAA42DCE35F0FDE43CFC2262
:1009920075F008758200EF2FFFEE33FECD33CDCC1C
:1009A20033CCC58233C5829BED9AEC99E58298409F
:1009B2000CF582EE9BFEED9AFDEC99FC0FD5F0D67C
:1009C200E4CEFBE4CDFAE4CCF9A88222B800C1B9A6
:1009D2000059BA002DEC8BF084CFCECDFCE5F0CBE4
:1009E200F97818EF2FFFEE33FEED33FDEC33FCEB1D
:1009F20033FB10D703994004EB99FB0FD8E5E4F9D8
:100A0200FA227818EF2FFFEE33FEED33FDEC33FCC4
:100A1200C933C910D7059BE99A4007EC9BFCE99AB8
:100A2200F90FD8E0E4C9FAE4CCFB2275F010EF2FFD
:100A3200FFEE33FEED33FDCC33CCC833C810D707FD
:100A42009BEC9AE899400AED9BFDEC9AFCE899F838
:0E0A52000FD5F0DAE4CDFBE4CCFAE4C8F922CB
:100A6C00020800E493A3F8E493A34003F68001F298
:100A7C0008DFF48029E493A3F85407240CC8C3338B
:100A8C00C4540F4420C8834004F456800146F6DF5A
:100A9C00E4800B0102040810204080900AECE47EF4
:100AAC00019360BCA3FF543F30E509541FFEE4934F
:100ABC00A360010ECF54C025E060A840B8E493A316
:100ACC00FAE493A3F8E493A3C8C582C8CAC583CA41
:100ADC00F0A3C8C582C8CAC583CADFE9DEE780BEF9
:010AF80000FD
:00000001FF
