:1009AD002053544152542050524F4752414D202014
:1009BD00002020464952535420494E505554202072
:1009CD002000534F5254494E472E2E2E00202020EA
:1009DD0020534F5254494E472020202020002020E4
:1009ED0020434F4D504C455445442020202000209D
:1009FD00204E554D42455220544F20424520200057
:100A0D00202020205345415243484544202020209A
:100A1D0000202054484520494E4445582049532034
:100A2D00200020202020204E554D424552202020D0
:100A3D0020002020204E4F5420464F554E4420205C
:100A4D002000202020204E45585420494E5055540A
:040A5D002020200035
:100A6100E4F5A0C282C280C2817F38FE120B0A7FE8
:100A7100047E00120ACD7F067E00120B0A7F047EDF
:100A810000120ACD7F0C7E00120B0A7F047E001239
:100A91000ACD120B067F047E00120ACD7F807E00F4
:030AA100020B0A3B
:040AC9007F887E1391
:100ACD00E4FDFCC3ED9FEC9E5015E4FBFA0BBB005F
:0F0ADD00010ABA01F8BB7EF50DBD00010C80E4E3
:010AEC0022E7
:040B06007F017E00ED
:100B0A00C280C281D2828FA07F0A7E00120ACDC221
:020B1A00822235
:100B1C00D280C281D2828FA07F0A7E00120ACDC2FF
:020B2C00822223
:100AA4008B158A168917AB15AA16A917120AED60B9
:100AB400130517E5177002051614F9120AEDFF1253
:050AC4000B1C80E22282
:10080000751101E4F513120A617BFF7A0979AD12C3
:100810000AA475900F120AC9120B067BFF7A097998
:10082000BE120AA4120AC9E511640670030209ACDB
:1008300053900FA990E4F5907FE87E03120ACD89CA
:1008400090740B2511F8A690E590540FF508E590EB
:1008500054F0F509E508C454F0F508E509C4540F4F
:10086000F5094508F50AE51164056003020992855A
:100870000A907F01FE120B0A7BFF7A0979CF120AD8
:10088000A4120AC975900F120B067BFF7A0979DA58
:10089000120AA47FC07E00120B0A7BFF7A0979EB53
:1008A000120AA4751401E51404FFEFC39406502145
:1008B000740B2FF8E6FE740B2514F8E6FDD39E406A
:1008C0000D740B2514F8A606740B2FF8A6050F80DF
:1008D000D90514E514B406CE751401740B2514F86B
:1008E000E6F9540FF508E954F0F509E508C454F0A9
:1008F000F508E509C4540FF5094508F50AF5901205
:100900000AC9E4F5907FE87E03120ACD0514E514C8
:10091000C3940640C67590FF120B067BFF7A0979D7
:10092000FC120AA47FC07E00120B0A7BFF7A0A79B0
:100930000D120AA4120AC9E590540FF508120B060D
:10094000E4F5907FE87E03120ACD751401740B253F
:1009500014F8E6B5081405137BFF7A0A791E120A0B
:10096000A4E514C454F0F59080FE0514E514C39476
:100970000640DAE513701B7BFF7A0A792F120AA46E
:100980007FC07E00120B0A7BFF7A0A793F120AA40D
:1009900080FE120B067BFF7A0A794F120AA4850AA1
:0C09A00090120AC975900F05110208277B
:0109AC002228
:03000000020B2EC2
:0C0B2E00787FE4F6D8FD758117020800FE
:100AED00BB010689828A83E0225002E722BBFE0207
:090AFD00E32289828A83E493223A
:00000001FF
