:03000000020100FA
:08010000316E31E2511080FE66
:100130007520037521027522FF7523057F000FBF0F
:10014000FFFCD523F7D522F1D521EBD520E522758B
:10015000200A7521027522FF7523057F000FBFFF5E
:10016000FCD523F7D522F1D521EBD520E5227590DA
:100170001F314FE590540FF550313075902F314FAE
:10018000E590540FC44550C4F53075903F314FE5AC
:1001900090540FF550313075904F314FE590540F1A
:1001A000C44550C4F53175905F314FE590540FF55B
:1001B00050313075906F314FE590540FC44550C4A5
:1001C000F53275907F314FE590540FF55031307511
:1001D000908F314FE590540FC44550C4F53375905E
:1001E0000022783079707A00E6C3940A50047710C0
:1001F0008017C3E6941450047720800DC3E6941E44
:10020000500477408003C377800A0809BA04D922D2
:100210007590003130857090313085719031308526
:1002200072903130857390227520057521027522F8
:10023000FF7523057F000FBFFFFCD523F7D522F103
:07024000D521EBD520E522DA
:00000001FF
