:100B1300041A000000000424000000000428000060
:100B23000000040800000000041600000000041E7A
:100B3300000000000A0C303132333435363738398F
:100AAA00E4F5A0C282C280C2817F38FE120BBE1258
:100ABA000B697F067E00120BBE120B697F0C7E004B
:100ACA00120BBE120B697F017E00120BBE120B695C
:070ADA007F807E00020BBECD
:040B69007F047E0087
:100B6D00E4FDFCC3ED9FEC9E5015E4FBFA0BBB00BE
:0F0B7D00010ABA01F8BB7EF50DBD00010C80E442
:010B8C002246
:100BBE00C280C281D2828FA07F0A7E00120B6DC2CC
:020BCE00822281
:030BA900F8E6FF6C
:100BAC00D280C281D2828FA07F0A7E00120B6DC2CE
:020BBC00822293
:100B44008B2C8A2D892EAB2CAA2DA92E120800607D
:100B540013052EE52E7002052D14F9120800FF125C
:050B64000BAC80E22251
:100AE100E47F1FFEFDFCAB1DAA1CA91BA81AC312A3
:100AF10008E7701DF51DF51CF51BF51AE50B240122
:100B0100F50BE4350AF50AE43509F509E43508F58C
:020B11000822B8
:03000B00020A5A8C
:100A5A00C0E0C0F0C083C082C0D075D000C000C062
:100A6A0001C002C003C004C005C006C007E51D24BA
:100A7A0001F51DE4351CF51CE4351BF51BE4351A9C
:100A8A00F51A120AE1D007D006D005D004D003D057
:100A9A0002D001D000D0D0D082D083D0F0D0E032C2
:100B8D00752301D2AFD2A9758901E4F58CF58AD20E
:0C0B9D008C308DFD0523E523B420E822F8
:1008F800120AAA3090FD120B8DE47F3CFEFDFCAB82
:100908000BAA0AA909A808C31208E7704EF50BF547
:100918000AF509F508E52B2401F52BE4352AF52A13
:10092800E43529F529E43528F528E47F0AFEFDFC9D
:10093800AB2BAA2AA929A828C31208E7701DF52BF2
:10094800F52AF529F528E5272401F527E43526F5C4
:1009580026E43525F525E43524F524E47B0AFAF95F
:10096800F8AF0BAE0AAD09AC08120855AC00AD01E2
:10097800AE02AF038F198E188D178C16E47B0AFA16
:10098800F9F8AF0BAE0AAD09AC081208558F218EE5
:10099800208D1F8C1E7F017E00120BBE740C252734
:1009A800120BA9740C252B120BA97F3A120BAC74ED
:1009B8000C2521F8E6FF120BAC740C2519F8E6FF9C
:0609C800120BAC0208FB5B
:030000000209CE24
:0C09CE00787FE4F6D8FD75812E020A1532
:10080000BB010689828A83E0225002E722BBFE02F6
:09081000E32289828A83E4932229
:1008190075F008758200EF2FFFEE33FECD33CDCC96
:1008290033CCC58233C5829BED9AEC99E582984019
:100839000CF582EE9BFEED9AFDEC99FC0FD5F0D6F6
:10084900E4CEFBE4CDFAE4CCF9A88222B800C1B920
:100859000059BA002DEC8BF084CFCECDFCE5F0CB5E
:10086900F97818EF2FFFEE33FEED33FDEC33FCEB97
:1008790033FB10D703994004EB99FB0FD8E5E4F952
:10088900FA227818EF2FFFEE33FEED33FDEC33FC3F
:10089900C933C910D7059BE99A4007EC9BFCE99A33
:1008A900F90FD8E0E4C9FAE4CCFB2275F010EF2F78
:1008B900FFEE33FEED33FDCC33CCC833C810D70778
:1008C9009BEC9AE899400AED9BFDEC9AFCE899F8B3
:0E08D9000FD5F0DAE4CDFBE4CCFAE4C8F92246
:1008E700EB9FF5F0EA9E42F0E99D42F0E89C45F067
:0108F70022DE
:1009DA000208F8E493A3F8E493A34003F68001F233
:1009EA0008DFF48029E493A3F85407240CC8C3331E
:1009FA00C4540F4420C8834004F456800146F6DFED
:100A0A00E4800B0102040810204080900B13E47E5E
:100A1A00019360BCA3FF543F30E509541FFEE493E1
:100A2A00A360010ECF54C025E060A840B8E493A3A8
:100A3A00FAE493A3F8E493A3C8C582C8CAC583CAD3
:100A4A00F0A3C8C582C8CAC583CADFE9DEE780BE8B
:010B430000B1
:00000001FF
