:03000000020130CA
:100130007590FF31AF313D3162317080FE7A0A78BF
:1001400030795F0975900F3190E590C4F6F59031E4
:10015000AF75900F3190E59046F7C4F59031AFDA66
:10016000E22275900F3190E590C4F59031AFC42232
:10017000C3F540940A5015317A22785F08E8540F8D
:10018000B540F9E6F59031AFC4F5902275900022A4
:1001900075200A7521027522FF7523057F000FBFA8
:1001A000FFFCD523F7D522F1D521EBD520E522752B
:1001B00020057521027522FF7523057F000FBFFF03
:0E01C000FCD523F7D522F1D521EBD520E52281
:00000001FF
