:03000000020100FA
:04010000313080FE1C
:10013000E560C394095005757005801EC3E56094A1
:100140001950057570158012C3E560942950057526
:1001500070258006C37570358000E561C394095031
:1001600005757105801EC3E56194195005757115FB
:100170008012C3E561942950057571258006C37509
:10018000713580D6E562C394095005757205801EED
:10019000C3E562941950057572158012C3E5629427
:1001A0002950057572258006C37572358000E56398
:1001B000C394095005757305801EC3E563941950F7
:1001C000057573158012C3E5639429500575732571
:1001D0008006C37573358000E564C39409500575C6
:1001E0007405801EC3E5649419500575741580125A
:1001F000C3E564942950057574258006C37574356C
:100200008000E565C394095005757505801EC3E53A
:1002100065941950057575158012C3E565942950CC
:10022000057575258006C37575358000E566C39430
:10023000095005757605801EC3E56694195005754D
:1002400076158012C3E566942950057576258006DB
:09025000C37576358000E567C333
:100259009409500475770522C3E56794195004750C
:10026900771522C3E5679429500475772522C3754C
:03027900773522B4
:00000001FF
